:100000000C9434000C943E000C943E000C943E0082
:100010000C943E000C943E000C943E000C943E0068
:100020000C943E000C943E000C943E000C943E0058
:100030000C943E000C943E000C943E000C943E0048
:100040000C943E000C943E000C9458000C943E001E
:100050000C943E000C943E000C943E000C943E0028
:100060000C943E000C943E0011241FBECFEFD8E04C
:10007000DEBFCDBF0E9440000C946C000C940000C9
:10008000A1ECB0E08C9188618C93E2ECF0E080818F
:100090008F73808380818F7C808380818660808362
:1000A00089E18093C4008C9180688C937894FFCF11
:1000B0001F920F920FB60F9211248F93EF93FF931D
:1000C000E6ECF0E080818083FF91EF918F910F90BB
:0C00D0000FBE0F901F901895F894FFCF02
:00000001FF
